:020000040800F2
:100000000010002001050008A9030008B103000842
:10001000B9030008C1030008C9030008000000007C
:10002000000000000000000000000000D1030008F4
:10003000DD03000800000000E9030008F5030008E4
:100040004905000849050008490500084905000858
:100050004905000849050008490500084905000848
:100060004905000849050008490500084905000838
:100070004905000849050008490500084905000828
:10008000490500084905000849050008000000006E
:10009000000000000000000000000000490500080A
:1000A00049050008490500084905000849050008F8
:1000B0000104000849050008490500084905000831
:1000C0004905000800000000000000004905000884
:1000D00049050008490500084905000849050008C8
:1000E000490500084905000849050008000000000E
:1000F0000000000000000000000000000000000000
:1001000000000000000000000000000000000000EF
:100110000000000000000000490500084905000833
:1001200000000000000000000000000000000000CF
:1001300000000000000000000000000000000000BF
:1001400000000000000000000000000000000000AF
:10015000000000000000000000000000000000009F
:10016000000000000000000000000000000000008F
:10017000000000000000000000000000000000007F
:10018000000000000000000000000000000000006F
:10019000000000000000000000000000000000005F
:1001A000000000000000000000000000000000004F
:1001B000000000000000000000000000000000003F
:1001C0000000000000000000000000005FF808F1DF
:1001D00010B5054C237833B9044B13B10448AFF381
:1001E00000800123237010BD0C00002000000000DF
:1001F0004C17000808B5034B1BB103490348AFF384
:10020000008008BD00000000100000204C1700080E
:1002100080B500AF00F099F900F004F800F000F9A3
:1002200000BFFDE780B590B000AF07F118032822AA
:100230000021184601F05EFA3B1D00221A605A6048
:100240009A60DA601A610223BB610123BB6210234A
:10025000FB6200237B6307F11803184600F0DCFA09
:100260000346002B01D000F018F80F237B60002319
:10027000BB600023FB6000233B6100237B613B1DCF
:100280000021184600F04AFD0346002B01D000F083
:1002900004F800BF4037BD4680BD80B400AF72B6E1
:1002A00000BF00BFFDE7000080B483B000AF03468D
:1002B000FB71FB79124A32F81330002B1BD0FB790B
:1002C0000F4A32F81320013A91B20D4A22F8131066
:1002D000FB790B4A32F81330002B0CD1FB79094A19
:1002E000012122F81310FA79FB79074931F812102D
:1002F000034A22F8131000BF0C37BD4680BC70477C
:100300003C000020280000205000002080B584B070
:1003100000AF78607B681B68B3F1804F0DD100237C
:10032000FB6007E0FB68DBB21846FFF7BDFFFB6828
:100330000133FB60FB68092BF4DD00BF1037BD46BD
:1003400080BD000080B485B000AF154B9B69144A96
:1003500043F001039361124B9B6903F00103BB60FF
:10036000BB680F4BDB690E4A43F08053D3610C4BE3
:10037000DB6903F080537B607B680A4B5B68FB6042
:10038000FB6823F0E063FB60FB6843F08063FB6085
:10039000044AFB68536000BF1437BD4680BC7047F9
:1003A000001002400000014080B400AF00BFFDE734
:1003B00080B400AF00BFFDE780B400AF00BFFDE731
:1003C00080B400AF00BFFDE780B400AF00BFFDE721
:1003D00080B400AF00BFBD4680BC704780B400AFA2
:1003E00000BFBD4680BC704780B400AF00BFBD46B3
:1003F00080BC704780B500AF00F0E4F800BF80BD5E
:1004000080B500AF024800F000FE00BF80BD00BF15
:100410006400002080B400AF00BFBD4680BC7047C0
:1004200080B586B000AF07F1080300221A605A6059
:100430009A60DA603B4600221A605A601D4B4FF00A
:1004400080421A601B4B41F63F725A60194B0022E2
:100450009A60184B0922DA60164B00221A61154B7C
:1004600000229A61134800F081FD0346002B01D061
:10047000FFF713FF4FF48053BB6007F108031946E1
:100480000C4800F0B2FE0346002B01D0FFF705FF39
:1004900000233B6000237B603B461946054801F082
:1004A000B1F80346002B01D0FFF7F7FE00BF183765
:1004B000BD4680BD6400002080B584B000AF786088
:1004C0007B681B68B3F1804F13D10C4BDB690B4A7F
:1004D00043F00103D361094BDB6903F00103FB60C7
:1004E000FB68002200211C2000F05FF91C2000F0B6
:1004F00078F900BF1037BD4680BD00BF0010024034
:10050000FFF788FF0B480C490C4A002302E0D4583F
:10051000C4500433C4188C42F9D3094A094C00234F
:1005200001E013600432A242FBD301F0EBF8FFF7C5
:100530006FFE7047000000200C0000209C17000890
:100540000C000020B0000020FEE780B500AF0320C3
:1005500000F020F90F2000F005F8FFF7F3FE00236C
:10056000184680BD80B582B000AF7860124B1A6823
:10057000124B1B7819464FF47A73B3FBF1F3B2FBBD
:10058000F3F3184600F03BF90346002B01D001239A
:100590000EE07B680F2B0AD8002279684FF0FF30FD
:1005A00000F003F9064A7B681360002300E0012392
:1005B00018460837BD4680BD000000200800002016
:1005C0000400002080B400AF054B1B781A46054B91
:1005D0001B681344034A136000BFBD4680BC7047CC
:1005E00008000020AC00002080B400AF024B1B6864
:1005F0001846BD4680BC7047AC00002080B485B072
:1006000000AF78607B6803F00703FB600C4BDB688E
:10061000BB60BA684FF6FF031340BB60FB681A0269
:10062000BB68134343F0BF6343F40033BB60044A29
:10063000BB68D36000BF1437BD4680BC704700BFA5
:1006400000ED00E080B400AF044BDB681B0A03F050
:1006500007031846BD4680BC704700BF00ED00E0B0
:1006600080B483B000AF0346FB7197F90730002BCD
:100670000BDBFB7903F01F02064997F907305B0992
:10068000012000FA02F241F8232000BF0C37BD46DA
:1006900080BC704700E100E080B483B000AF034647
:1006A0003960FB7197F90730002B0ADB3B68DAB23F
:1006B0000C4997F907301201D2B20B4483F800239A
:1006C0000AE03B68DAB20849FB7903F00F03043B08
:1006D0001201D2B20B441A7600BF0C37BD4680BC63
:1006E000704700BF00E100E000ED00E080B489B099
:1006F00000AFF860B9607A60FB6803F00703FB6144
:10070000FB69C3F10703042B28BF0423BB61FB690A
:100710000433062B02D9FB69033B00E000237B6115
:100720004FF0FF32BB6902FA03F3DA43BB681A40A9
:100730007B699A404FF0FF317B6901FA03F3D9439B
:100740007B680B40134318462437BD4680BC704776
:1007500080B582B000AF78607B68013BB3F1807FE9
:1007600001D301230FE00A4A7B68013B53600F214C
:100770004FF0FF30FFF790FF054B00229A60044BCB
:1007800007221A60002318460837BD4680BD00BF07
:1007900010E000E080B582B000AF78607868FFF7C5
:1007A0002DFF00BF0837BD4680BD80B586B000AFC5
:1007B0000346B9607A60FB7300237B61FFF742FF59
:1007C00078617A68B9687869FFF790FF024697F90F
:1007D0000F3011461846FFF75FFF00BF1837BD46C0
:1007E00080BD80B582B000AF0346FB7197F907303A
:1007F0001846FFF735FF00BF0837BD4680BD80B5FE
:1008000082B000AF78607868FFF7A2FF0346184611
:100810000837BD4680BD000080B586B000AF786067
:100820007B68002B01D1012372E27B681B6803F017
:100830000103002B00F08780924B5B6803F00C03F0
:10084000042B0CD08F4B5B6803F00C03082B12D1E8
:100850008C4B5B6803F48033B3F5803F0BD1894B3D
:100860001B6803F40033002B6CD07B685B68002BA3
:1008700068D101234CE27B685B68B3F5803F06D109
:10088000804B1B687F4A43F4803313602EE07B6803
:100890005B68002B0CD17B4B1B687A4A23F48033B6
:1008A0001360784B1B68774A23F4802313601DE0A4
:1008B0007B685B68B3F5A02F0CD1724B1B68714A43
:1008C00043F4802313606F4B1B686E4A43F48033FC
:1008D00013600BE06B4B1B686A4A23F48033136090
:1008E000684B1B68674A23F4802313607B685B684E
:1008F000002B13D0FFF778FE386108E0FFF774FE95
:1009000002463B69D31A642B01D9032300E25D4BF5
:100910001B6803F40033002BF0D014E0FFF764FEF3
:10092000386108E0FFF760FE02463B69D31A642B8A
:1009300001D90323ECE1534B1B6803F40033002B74
:10094000F0D100E000BF7B681B6803F00203002BBE
:1009500063D04C4B5B6803F00C03002B0BD0494B6E
:100960005B6803F00C03082B1CD1464B5B6803F457
:100970008033002B16D1434B1B6803F00203002B7E
:1009800005D07B681B69012B01D00123C0E13D4BE1
:100990001B6823F0F8027B685B69DB00394913436D
:1009A0000B603AE07B681B69002B20D0364B01229C
:1009B0001A60FFF719FE386108E0FFF715FE0246DE
:1009C0003B69D31A022B01D90323A1E12D4B1B68EC
:1009D00003F00203002BF0D02A4B1B6823F0F8022F
:1009E0007B685B69DB00274913430B6015E0264BEE
:1009F00000221A60FFF7F8FD386108E0FFF7F4FD08
:100A000002463B69D31A022B01D9032380E11D4B17
:100A10001B6803F00203002BF0D17B681B6803F016
:100A20000803002B3AD07B689B69002B19D0174B29
:100A300001221A60FFF7D8FD386108E0FFF7D4FD06
:100A400002463B69D31A022B01D9032360E10D4B07
:100A50005B6A03F00203002BF0D0012000F068FA7B
:100A60001CE00A4B00221A60FFF7BEFD38610FE060
:100A7000FFF7BAFD02463B69D31A022B08D90323BC
:100A800046E100BF001002400000424280044242A2
:100A9000924B5B6A03F00203002BE9D17B681B6871
:100AA00003F00403002B00F0A6800023FB758B4BA2
:100AB000DB6903F08053002B0DD1884BDB69874A3B
:100AC00043F08053D361854BDB6903F08053BB60F7
:100AD000BB680123FB75824B1B6803F48073002BFA
:100AE00018D17F4B1B687E4A43F480731360FFF775
:100AF0007BFD386108E0FFF777FD02463B69D31ABA
:100B0000642B01D9032303E1754B1B6803F4807345
:100B1000002BF0D07B68DB68012B06D16F4B1B6A82
:100B20006E4A43F0010313622DE07B68DB68002B03
:100B30000CD16A4B1B6A694A23F001031362674BAD
:100B40001B6A664A23F0040313621CE07B68DB68BF
:100B5000052B0CD1614B1B6A604A43F004031362FE
:100B60005E4B1B6A5D4A43F0010313620BE05B4B73
:100B70001B6A5A4A23F001031362584B1B6A574AF7
:100B800023F0040313627B68DB68002B15D0FFF7AA
:100B90002BFD38610AE0FFF727FD02463B69D31AB7
:100BA00041F28832934201D90323B1E04B4B1B6AD7
:100BB00003F00203002BEED014E0FFF715FD3861BF
:100BC0000AE0FFF711FD02463B69D31A41F2883271
:100BD000934201D903239BE0404B1B6A03F00203BD
:100BE000002BEED1FB7D012B05D13C4BDB693B4A51
:100BF00023F08053D3617B68DB69002B00F0878092
:100C0000364B5B6803F00C03082B61D07B68DB6913
:100C1000022B46D1334B00221A60FFF7E5FC386106
:100C200008E0FFF7E1FC02463B69D31A022B01D929
:100C300003236DE0294B1B6803F00073002BF0D1F8
:100C40007B681B6AB3F5803F08D1244BDB6A23F035
:100C50000F027B689B6821491343CB621F4B5B6883
:100C600023F474127B68196A7B685B6A0B431B4927
:100C700013434B601B4B01221A60FFF7B5FC386130
:100C800008E0FFF7B1FC02463B69D31A022B01D9F9
:100C900003233DE0114B1B6803F00073002BF0D0E1
:100CA00035E0104B00221A60FFF79EFC386108E027
:100CB000FFF79AFC02463B69D31A022B01D90323A2
:100CC00026E0064B1B6803F00073002BF0D11EE0FA
:100CD0007B68DB69012B07D1012319E0001002407A
:100CE00000700040600042420B4B5B68FB60FB6899
:100CF00003F480327B681B6A9A4206D1FB6803F4D6
:100D000070127B685B6A9A4201D0012300E00023E5
:100D100018461837BD4680BD0010024080B584B02B
:100D200000AF786039607B68002B01D10123A0E01F
:100D30007B681B6803F00203002B20D07B681B68D4
:100D400003F00403002B05D04C4B5B684B4A43F483
:100D5000E06353607B681B6803F00803002B05D039
:100D6000464B5B68454A43F460535360434B5B68B2
:100D700023F0F0027B689B68404913434B607B681B
:100D80001B6803F00103002B40D07B685B68012BDC
:100D900007D13A4B1B6803F40033002B15D1012314
:100DA00067E07B685B68022B07D1344B1B6803F05C
:100DB0000073002B09D101235BE0304B1B6803F06B
:100DC0000203002B01D1012353E02C4B5B6823F07D
:100DD00003027B685B68294913434B60FFF704FCFF
:100DE000F8600AE0FFF700FC0246FB68D31A41F204
:100DF0008832934201D903233BE0204B5B6803F028
:100E00000C027B685B689B009A42EBD17B681B6895
:100E100003F00403002B08D0184B5B6823F4E06256
:100E20007B68DB68154913434B607B681B6803F0E4
:100E30000803002B09D0114B5B6823F460527B68D8
:100E40001B69DB000D4913434B6000F01FF802469D
:100E50000A4B5B681B0903F00F030949CB5C22FABC
:100E600003F3084A1360084B1B681846FFF77AFB28
:100E7000002318461037BD4680BD00BF0010024059
:100E800064170008000000200400002080B487B030
:100E900000AF0023FB600023BB6000237B610023C5
:100EA0007B6000233B611D4B5B68FB60FB6803F0CC
:100EB0000C03042B02D0082B03D026E0184B3B6117
:100EC00026E0FB689B0C03F00F03164AD35C7B60A3
:100ED000FB6803F48033002B0FD0104BDB6A03F068
:100EE0000F03114AD35CBB607B680D4A03FB02F21F
:100EF000BB68B2FBF3F37B6104E07B680B4A02FB47
:100F000003F37B617B693B6102E0054B3B6100BF02
:100F10003B6918461C37BD4680BC70470010024034
:100F200000127A00741700088417000800093D00B9
:100F300080B485B000AF78600A4B1B680A4AA2FBF8
:100F400003235B0A7A6802FB03F3FB6000BFFB68C4
:100F50005A1EFA60002BF9D100BF00BF1437BD46FE
:100F600080BC704700000020D34D621080B582B075
:100F700000AF78607B68002B01D1012341E07B68E2
:100F800093F83D30DBB2002B06D17B68002283F85A
:100F90003C207868FFF790FA7B68022283F83D20B6
:100FA0007B681A687B6804331946104600F008FA1B
:100FB0007B68012283F846207B68012283F83E206B
:100FC0007B68012283F83F207B68012283F8402060
:100FD0007B68012283F841207B68012283F842204C
:100FE0007B68012283F843207B68012283F8442038
:100FF0007B68012283F845207B68012283F83D202D
:10100000002318460837BD4680BD80B584B000AFC8
:1010100078607B681B68DB68FB607B681B681B690A
:10102000BB60BB6803F00203002B20D0FB6803F019
:101030000203002B1BD07B681B686FF002021A6151
:101040007B6801221A777B681B689B6903F00303A6
:10105000002B03D0786800F098F905E0786800F07C
:101060008BF9786800F09AF97B6800221A77BB68E0
:1010700003F00403002B20D0FB6803F00403002BD3
:101080001BD07B681B686FF004021A617B68022228
:101090001A777B681B689B6903F44073002B03D0AD
:1010A000786800F072F905E0786800F065F9786812
:1010B00000F074F97B6800221A77BB6803F008031C
:1010C000002B20D0FB6803F00803002B1BD07B68AB
:1010D0001B686FF008021A617B6804221A777B682C
:1010E0001B68DB6903F00303002B03D0786800F072
:1010F0004CF905E0786800F03FF9786800F04EF9A7
:101100007B6800221A77BB6803F01003002B20D005
:10111000FB6803F01003002B1BD07B681B686FF08B
:1011200010021A617B6808221A777B681B68DB69EA
:1011300003F44073002B03D0786800F026F905E033
:10114000786800F019F9786800F028F97B680022C7
:101150001A77BB6803F00103002B0CD0FB6803F087
:101160000103002B07D07B681B686FF001021A6136
:101170007868FFF7CBF8BB6803F08003002B0CD036
:10118000FB6803F08003002B07D07B681B686FF0BF
:1011900080021A61786800F0A4FABB6803F040038B
:1011A000002B0CD0FB6803F04003002B07D07B68BA
:1011B0001B686FF040021A61786800F0F8F8BB68AD
:1011C00003F02003002B0CD0FB6803F02003002B5E
:1011D00007D07B681B686FF020021A61786800F006
:1011E00077FA00BF1037BD4680BD80B584B000AF30
:1011F000786039600023FB737B6893F83C30012BE7
:1012000001D10223B4E07B68012283F83C207B6893
:10121000022283F83D207B681B689B68BB60BB682B
:1012200023F07703BB60BB6823F47F43BB607B681C
:101230001B68BA689A603B681B68B3F5005F3ED0D4
:10124000B3F5005F00F28780B3F5805F00F0868021
:10125000B3F5805F7FD8702B1AD0702B7BD8602BB2
:1012600050D0602B77D8502B3CD0502B73D8402BCC
:1012700058D0402B6FD8302B64D0302B6BD8202B1C
:1012800060D0202B67D8002B5CD0102B5AD062E0A6
:101290007B6818683B6899683B685A683B68DB68FC
:1012A00000F091F97B681B689B68BB60BB6843F0EA
:1012B0007703BB607B681B68BA689A604FE07B6805
:1012C00018683B6899683B685A683B68DB6800F0BF
:1012D0007AF97B681B689A687B681B6842F48042D5
:1012E0009A603CE07B6818683B6859683B68DB683B
:1012F0001A4600F0F1F87B681B685021184600F090
:1013000048F92CE07B6818683B6859683B68DB68E3
:101310001A4600F00FF97B681B686021184600F040
:1013200038F91CE07B6818683B6859683B68DB68E3
:101330001A4600F0D1F87B681B684021184600F07F
:1013400028F90CE07B681A683B681B681946104650
:1013500000F01FF903E00123FB7300E000BF7B688E
:10136000012283F83D207B68002283F83C20FB7B30
:1013700018461037BD4680BD80B483B000AF78609A
:1013800000BF0C37BD4680BC704780B483B000AF4F
:10139000786000BF0C37BD4680BC704780B483B016
:1013A00000AF786000BF0C37BD4680BC704780B48A
:1013B00083B000AF786000BF0C37BD4680BC70477B
:1013C00080B485B000AF786039607B681B68FB60D3
:1013D0007B683B4A93420BD07B68B3F1804F07D0C8
:1013E0007B68384A934203D07B68374A934208D1DE
:1013F000FB6823F07003FB603B685B68FA6813438B
:10140000FB607B682E4A934217D07B68B3F1804F14
:1014100013D07B682B4A93420FD07B682A4A9342B1
:101420000BD07B68294A934207D07B68284A9342B5
:1014300003D07B68274A934208D1FB6823F44073AA
:10144000FB603B68DB68FA681343FB60FB6823F0D2
:1014500080023B685B691343FB607B68FA681A6033
:101460003B689A687B68DA623B681A687B689A62B4
:101470007B68134A93420BD07B68144A934207D08F
:101480007B68134A934203D07B68124A934203D18C
:101490003B681A697B681A637B6801225A617B6822
:1014A0001B6903F00103002B05D07B681B6923F047
:1014B00001027B681A6100BF1437BD4680BC7047CB
:1014C000002C0140000400400008004000400140A2
:1014D000004401400048014080B487B000AFF8608C
:1014E000B9607A60FB681B6A7B61FB681B6A23F04A
:1014F0000102FB681A62FB689B693B613B6923F050
:10150000F0033B617B681B013A6913433B617B69D4
:1015100023F00A037B617A69BB6813437B61FB6834
:101520003A699A61FB687A691A6200BF1C37BD4646
:1015300080BC704780B487B000AFF860B9607A6053
:10154000FB681B6A7B61FB681B6A23F01002FB6867
:101550001A62FB689B693B613B6923F470433B6102
:101560007B681B033A6913433B617B6923F0A0034B
:101570007B61BB681B017A6913437B61FB683A6935
:101580009A61FB687A691A6200BF1C37BD4680BC4D
:10159000704780B485B000AF786039607B689B6825
:1015A000FB60FB6823F07003FB603A68FB68134341
:1015B00043F00703FB607B68FA689A6000BF14374A
:1015C000BD4680BC704780B487B000AFF860B9609A
:1015D0007A603B60FB689B687B617B6923F47F4397
:1015E0007B613B681A027B681A43BB6813437A69C4
:1015F00013437B61FB687A699A6000BF1C37BD4664
:1016000080BC704780B485B000AF786039607B687B
:1016100093F83C30012B01D102234BE07B6801227F
:1016200083F83C207B68022283F83D207B681B689E
:101630005B68FB607B681B689B68BB60FB6823F092
:101640007003FB603B681B68FA681343FB607B68B0
:101650001B68FA685A607B681B68194A934213D06A
:101660007B681B68B3F1804F0ED07B681B68154AFE
:10167000934209D07B681B68134A934204D07B686D
:101680001B68124A93420CD1BB6823F08003BB60F5
:101690003B685B68BA681343BB607B681B68BA68C9
:1016A0009A607B68012283F83D207B68002283F8E2
:1016B0003C20002318461437BD4680BC704700BF4D
:1016C000002C0140000400400008004000400140A0
:1016D00080B483B000AF786000BF0C37BD4680BCDB
:1016E000704780B483B000AF786000BF0C37BD4650
:1016F00080BC704703460244934200D1704703F810
:10170000011BF9E770B500260C4D0D4C641BA410AD
:10171000A64209D100F01AF800260A4D0A4C641BB3
:10172000A410A64205D170BD55F8043B9847013678
:10173000EEE755F8043B98470136F2E794170008A6
:10174000941700089417000898170008F8B500BF10
:10175000F8BC08BC9E467047F8B500BFF8BC08BC92
:041760009E467047EA
:10176400000000000000000001020304060708094D
:1017740002030405060708090A0B0C0D0E0F1010CE
:101784000102030405060708090A0B0C0D0E0F10CD
:04179400F501000853
:04179800D101000873
:0C179C0000127A001000000001000000A4
:0400000508000501E9
:00000001FF
